{
  "contractName": "Escrow_contract",
  "abi": [
    {
      "inputs": [
        {
          "internalType": "uint256",
          "name": "_amount",
          "type": "uint256"
        }
      ],
      "stateMutability": "payable",
      "type": "constructor"
    },
    {
      "inputs": [],
      "name": "is_paid",
      "outputs": [
        {
          "internalType": "bool",
          "name": "",
          "type": "bool"
        }
      ],
      "stateMutability": "view",
      "type": "function"
    },
    {
      "inputs": [],
      "name": "user_A",
      "outputs": [
        {
          "internalType": "address",
          "name": "",
          "type": "address"
        }
      ],
      "stateMutability": "view",
      "type": "function"
    },
    {
      "inputs": [],
      "name": "work_done",
      "outputs": [
        {
          "internalType": "bool",
          "name": "",
          "type": "bool"
        }
      ],
      "stateMutability": "view",
      "type": "function"
    },
    {
      "inputs": [],
      "name": "getBalance",
      "outputs": [
        {
          "internalType": "uint256",
          "name": "",
          "type": "uint256"
        }
      ],
      "stateMutability": "view",
      "type": "function"
    },
    {
      "inputs": [],
      "name": "WorkDonebyUser_B",
      "outputs": [
        {
          "internalType": "bool",
          "name": "",
          "type": "bool"
        }
      ],
      "stateMutability": "nonpayable",
      "type": "function"
    },
    {
      "inputs": [
        {
          "internalType": "uint256",
          "name": "_amount",
          "type": "uint256"
        },
        {
          "internalType": "address payable",
          "name": "_user_B",
          "type": "address"
        }
      ],
      "name": "sentEtherToUser_B",
      "outputs": [],
      "stateMutability": "payable",
      "type": "function"
    }
  ],
  "bytecode": "0x6080604052604051610777380380610777833981810160405281019061002591906100ad565b336000806101000a81548173ffffffffffffffffffffffffffffffffffffffff021916908373ffffffffffffffffffffffffffffffffffffffff16021790555080600181905550506100da565b600080fd5b6000819050919050565b61008a81610077565b811461009557600080fd5b50565b6000815190506100a781610081565b92915050565b6000602082840312156100c3576100c2610072565b5b60006100d184828501610098565b91505092915050565b61068e806100e96000396000f3fe6080604052600436106100555760003560e01c806312065fe01461005a5780631a5122b0146100855780636892ea37146100b0578063da9c4312146100db578063daf3724614610106578063de7d152514610122575b600080fd5b34801561006657600080fd5b5061006f61014d565b60405161007c9190610381565b60405180910390f35b34801561009157600080fd5b5061009a610155565b6040516100a791906103b7565b60405180910390f35b3480156100bc57600080fd5b506100c5610168565b6040516100d29190610413565b60405180910390f35b3480156100e757600080fd5b506100f061018c565b6040516100fd91906103b7565b60405180910390f35b610120600480360381019061011b919061049d565b6101be565b005b34801561012e57600080fd5b50610137610355565b60405161014491906103b7565b60405180910390f35b600047905090565b600060149054906101000a900460ff1681565b60008054906101000a900473ffffffffffffffffffffffffffffffffffffffff1681565b60006001600060146101000a81548160ff021916908315150217905550600060149054906101000a900460ff16905090565b80600073ffffffffffffffffffffffffffffffffffffffff168173ffffffffffffffffffffffffffffffffffffffff16141561022f576040517f08c379a00000000000000000000000000000000000000000000000000000000081526004016102269061053a565b60405180910390fd5b600260009054906101000a900460ff161561027f576040517f08c379a0000000000000000000000000000000000000000000000000000000008152600401610276906105a6565b60405180910390fd5b600060149054906101000a900460ff166102ce576040517f08c379a00000000000000000000000000000000000000000000000000000000081526004016102c590610638565b60405180910390fd5b60008060146101000a81548160ff02191690831515021790555060008290508073ffffffffffffffffffffffffffffffffffffffff166108fc859081150290604051600060405180830381858888f19350505050158015610333573d6000803e3d6000fd5b50506001600260006101000a81548160ff021916908315150217905550505050565b600260009054906101000a900460ff1681565b6000819050919050565b61037b81610368565b82525050565b60006020820190506103966000830184610372565b92915050565b60008115159050919050565b6103b18161039c565b82525050565b60006020820190506103cc60008301846103a8565b92915050565b600073ffffffffffffffffffffffffffffffffffffffff82169050919050565b60006103fd826103d2565b9050919050565b61040d816103f2565b82525050565b60006020820190506104286000830184610404565b92915050565b600080fd5b61043c81610368565b811461044757600080fd5b50565b60008135905061045981610433565b92915050565b600061046a826103d2565b9050919050565b61047a8161045f565b811461048557600080fd5b50565b60008135905061049781610471565b92915050565b600080604083850312156104b4576104b361042e565b5b60006104c28582860161044a565b92505060206104d385828601610488565b9150509250929050565b600082825260208201905092915050565b7f4e6f742076616c69642061646472657373000000000000000000000000000000600082015250565b60006105246011836104dd565b915061052f826104ee565b602082019050919050565b6000602082019050818103600083015261055381610517565b9050919050565b7f55736572204220697320416c7265616479205061696400000000000000000000600082015250565b60006105906016836104dd565b915061059b8261055a565b602082019050919050565b600060208201905081810360008301526105bf81610583565b9050919050565b7f576f726b204e6f7420446f6e652c20506c6561736520646f6e6520746865207760008201527f6f726b2066697273740000000000000000000000000000000000000000000000602082015250565b60006106226029836104dd565b915061062d826105c6565b604082019050919050565b6000602082019050818103600083015261065181610615565b905091905056fea26469706673582212207c61ebf97a50215351fe71731e2b63af17522b6afa291a5d02a85e20006542f964736f6c634300080c0033",
  "immutableReferences": {},
  "source": "// SPDX-License-Identifier: MIT\r\npragma solidity ^0.8.10;\r\n\r\ncontract Escrow_contract {\r\n    address public user_A;\r\n    bool public work_done;\r\n    uint amount;\r\n    bool public is_paid;\r\n    address payable user_B; \r\n\r\n    constructor(uint _amount) payable {\r\n        user_A = msg.sender;\r\n        amount = _amount;\r\n    }\r\n\r\n    modifier validAddress(address _addr) {\r\n        require(_addr != address(0), \"Not valid address\");\r\n        _;\r\n    }\r\n\r\n    modifier work() {\r\n        require(work_done, \"Work Not Done, Please done the work first\");\r\n        work_done = false;\r\n        _;\r\n    }\r\n\r\n     modifier paid() {\r\n        require(!is_paid, \"User B is Already Paid\");\r\n        _;\r\n        is_paid = true;\r\n    }\r\n\r\n    function getBalance() public view  returns (uint) {\r\n        return address(this).balance;\r\n    }\r\n\r\n    function WorkDonebyUser_B() public returns (bool) {\r\n       work_done = true;\r\n       return work_done;\r\n    }\r\n\r\n    function sentEtherToUser_B(uint _amount, address payable _user_B) public payable validAddress(_user_B) paid work {\r\n        address payable user = _user_B;\r\n        user.transfer(_amount);\r\n    }\r\n}",
  "sourcePath": "C:\\Users\\adity\\Desktop\\Escrow\\escrow-wallet\\contracts\\Escrow.sol",
  "compiler": {
    "name": "solc",
    "version": "0.8.12+commit.f00d7308.Emscripten.clang"
  },
  "schemaVersion": "3.4.6",
  "updatedAt": "2022-05-03T17:04:58.708Z",
  "devdoc": {
    "kind": "dev",
    "methods": {},
    "version": 1
  },
  "userdoc": {
    "kind": "user",
    "methods": {},
    "version": 1
  }
}